:060000000A128A110C280F
:10000800FE00030EF0000A08F1000A128A157D2C82
:100018000A128A110F280A128A15D9230A128A117C
:10002800C8000A128A15DA230A128A11C9000A12AC
:100038008A15DB230A128A11CA000A128A15DC23E0
:100048000A128A11CB00CC01FA01FB0183010A12C2
:100058008A112E280730831603139F000514851470
:100068000A128A15F9260A128A110230831203131A
:10007800B7004530B600A930B500B50B4128B60B1E
:100088004128B70B41280A128A15A8240A128A1196
:100098000A128A1525240A128A110A128A15EB23D4
:1000A8000A128A11063083120313B7001330B60000
:1000B800AD30B500B50B5E28B60B5E28B70B5E28D1
:1000C8000030F6000030F5002530F4008030F300F1
:1000D8000A128A158D240A128A1103308312031317
:1000E800B7008A30B6005530B500B50B7928B60B85
:1000F8007928B70B79280A128A1500240A128A115E
:1001080083120313A10100300A128A15C6240A12A9
:100118008A111E3083120313A1008630A2000A122E
:100128008A150E250A128A1183120313A1010130C0
:100138000A128A15C6240A128A112C308312031354
:10014800A1008630A2000A128A150E250A128A1109
:10015800273083120313B7000D30B6002530B500E1
:10016800B50BB428B60BB428B70BB428BB28831238
:100178000313C101C201C301C401C501C601E730AF
:10018800B9000330BA00E730BB000330BC00E730E9
:10019800BD000330BE00C7016330B800BF0138306E
:1001A800F3008630F4000A128A15E8240A128A112C
:1001B8000A128A153C240A128A11003A0319E52802
:1001C800E6281B2A0A128A1561240A128A11831248
:1001D8000313C00045304006031DF328F428F72810
:1001E8000130CA001B2A43304006031DFC28FD28A5
:1001F800FF28CA011B2A4D304006031D0429052982
:100208003A290130BF000A128A15EB230A128A1113
:100218000A128A1500240A128A1183120313A101F3
:1002280000300A128A15C6240A128A1199308312DC
:100238000313A1008530A2000A128A150E250A129E
:100248008A1183120313A10101300A128A15C624E8
:100258000A128A11553083120313A1008530A200B7
:100268000A128A150E250A128A111B2A41304006E5
:10027800031D3F2940298229BF010A128A15EB2351
:100288000A128A110A128A1500240A128A11831284
:100298000313A10100300A128A15C6240A128A1112
:1002A800333083120313A1008530A2000A128A1585
:1002B8000E250A128A1183120313A10101300A12B2
:1002C8008A15C6240A128A11AA3083120313A100C0
:1002D8008530A2000A128A150E250A128A11E73003
:1002E80083120313B9000330BA00E730BB000330B0
:1002F800BC00E730BD000330BE001B2A3F03031DCE
:10030800862987291B2A0A2A0A128A15DD230A1236
:100318008A1183120313A10100300A128A15C62418
:100328000A128A11773083120313A1008530A200C4
:100338000A128A150E250A128A111B2A0A128A1510
:10034800E4230A128A1183120313A10100300A124E
:100358008A15C6240A128A11883083120313A10051
:100368008530A2000A128A150E250A128A111B2A44
:100378000A128A15F2230A128A1183120313A101A1
:1003880000300A128A15C6240A128A1122308312F2
:100398000313A1008530A2000A128A150E250A123D
:1003A8008A111B2A0A128A15F9230A128A11831242
:1003B8000313A10100300A128A15C6240A128A11F1
:1003C800443083120313A1008530A2000A128A1553
:1003D8000E250A128A111B2A0A128A15EB230A1201
:1003E8008A1183120313A10100300A128A15C62448
:1003F8000A128A11113083120313A1008530A2005A
:100408000A128A150E250A128A111B2A4008423A36
:100418000319A229043A031988290A3A0319BC299D
:100428001E3A0319D629013A0319F0291B2A831207
:100438000313051C202A212A242A0130C700342A44
:100448008518272A282A2B2A0230C700342A4A0866
:10045800031D2F2A302A332A0330C700342AC70144
:10046800470838060319392A3A2A272B0A128A1507
:1004780000240A128A11831203134703031D452A15
:10048800462A742A0A128A15EB230A128A11831241
:100498000313A10100300A128A15C6240A128A1110
:1004A800FE3083120313A1008530A2000A128A15B8
:1004B8000E250A128A1183120313A10101300A12B0
:1004C8008A15C6240A128A11EE3083120313A1007A
:1004D8008530A2000A128A150E250A128A11152BD8
:1004E80002304706031D792A7A2AA82A0A128A1591
:1004F800EB230A128A1183120313A10100300A1296
:100508008A15C6240A128A11CC3083120313A1005B
:100518008530A2000A128A150E250A128A11831242
:100528000313A10101300A128A15C6240A128A117E
:100538000E3083120313A1008630A2000A128A1516
:100548000E250A128A11152B03304706031DAD2A02
:10055800AE2ADC2A0A128A15EB230A128A118312A0
:100568000313A10100300A128A15C6240A128A113F
:10057800DD3083120313A1008530A2000A128A1508
:100588000E250A128A1183120313A10101300A12DF
:100598008A15C6240A128A11663083120313A10031
:1005A8008530A2000A128A150E250A128A11152B07
:1005B8003F08031DE02AE12A072BA10100300A1297
:1005C8008A15C6240A128A11003083120313A10067
:1005D8008530A2000A128A150E250A128A11831282
:1005E8000313A10101300A128A15C6240A128A11BE
:1005F800BB3083120313A1008530A2000A128A15AA
:100608000E250A128A11E73083120313B90003304A
:10061800BA00E730BB000330BC00E730BD00033050
:10062800BE00831203134708B80006308312031371
:10063800B7001330B600AD30B500B50B212BB60BA3
:10064800212BB70B212B831203134708031D2D2BD6
:100658002E2B732C3F08031D322B332B732C0030A9
:100668000A128A119B260A128A118312031321087F
:10067800C2002008C100413083120313B600ED30D8
:10068800B500B50B452BB60B452B4A2B01300A128A
:100698008A119B260A128A11831203132108C400A7
:1006A8002008C300413083120313B600ED30B500B3
:1006B800B50B5C2BB60B5C2B612B02300A128A112E
:1006C8009B260A128A11831203132108C6002008E8
:1006D800C500413083120313B600ED30B500B50BE9
:1006E800732BB60B732B782B831203133A0842062D
:1006F800031D802B390841060319832B842B9D2B5E
:100708000230A10000300A128A15C6240A128A1182
:10071800831203134208AC004108AB000A128A1581
:1007280038250A128A11831203134208BA004108B5
:10073800B9003C084406031DA32B3B0843060319D4
:10074800A62BA72BC02B0230A10001300A128A1554
:10075800C6240A128A11831203134408AC00430802
:10076800AB000A128A1538250A128A11831203135C
:100778004408BC004308BB003E084606031DC62BC0
:100788003D0845060319C92BCA2BE32B0A30A100E3
:1007980001300A128A15C6240A128A118312031319
:1007A8004608AC004508AB000A128A1538250A121B
:1007B8008A11831203134608BE004508BD000030A5
:1007C80042021F3003194102031CEB2BEC2BF22BC6
:1007D8000A128A15DD230A128A11732C0A128A1545
:1007E800EB230A128A11063083120313B700133061
:1007F800B600AD30B500B50BFF2BB60BFF2BB70B12
:10080800FF2B8312031344084602031D0D2C4308D3
:1008180045020318102C112C332C003044021F30D1
:1008280003194302031C192C1A2C332C0A128A159B
:10083800F2230A128A110B3083120313B7002630F1
:10084800B6005D30B500B50B272CB60B272CB70BBF
:10085800272C0A128A15EB230A128A11732C4608D0
:100868004402031D392C4508430203183C2C3D2C37
:100878004C2C003046021F3003194502031C452C3E
:10088800462C4C2C0A128A15F9230A128A111F2C9D
:100898000A128A15E4230A128A11103083120313EC
:1008A800B7003930B6000D30B500B50B592CB60B72
:1008B800592CB70B592C0A128A15F9230A128A11D6
:1008C800103083120313B7003930B6000D30B5006D
:1008D800B50B6C2CB60B6C2CB70B6C2C2D2C00307C
:1008E8008312031385180130A9004208AB004108A0
:1008F800AA004408AD004308AC004608AF0045080C
:10090800AE000310051C03140030031801300A124E
:100918008A157C270A128A11023083120313B70042
:100928004530B600A930B500B50B982CB60B982CFD
:10093800B70B982CDC280A128A110C28831203138F
:10094800A80120082104031DAA2CAB2CDD2C303073
:100958000A128A1548240A128A11F72C2808223EFE
:1009680084000A30F2000030F3002108F500200866
:10097800F4000A128A1598250A128A117208303E64
:1009880083138000013083120313A8070A30F20092
:100998000030F3002108F5002008F4000A128A1537
:1009A8000B260A128A11730883120313A100720816
:1009B800A00020082104031DE22CE32CB22CF02C0B
:1009C8000130A8022808223E8400831300080A1276
:1009D8008A1548240A128A11831203132808031D52
:1009E800F62CF72CE42C08008312031310100F08C0
:1009F800F3000E08F200080046343A342D342D3442
:100A08002D34203420342034203420342034203431
:100A18002034203420342034003443344D344434DA
:100A28003A342034533454344F345034203420343E
:100A380020342034203420342034003443344D34DE
:100A480044343A3420344C34453446345434203415
:100A580020342034203420342034203400344D34E1
:100A68006F34643465343A34203441345534543462
:100A78004F342034203420342034203420340034BF
:100A880043344D3444343A342034523449344734AE
:100A98004834543420342034203420342034203452
:100AA8000034413470347034203443346F346E343D
:100AB800743472346F346C3420342034203420344D
:100AC8002034003445347934653473342034433465
:100AD8006C346F34733465346434213420342034F6
:100AE80020342034003443344D3444343A342034F0
:100AF80046344F3452345734413452344434203419
:100B0800203420342034003443344D3444343A34CF
:100B180020345234453456344534523453344534F1
:100B2800203420342034203400344D346F3464347D
:100B380065343A3420344D3441344E3455344134DC
:100B48004C3420342034203420340034413475347B
:100B580074346F346E346F346D346F347534733469
:100B68002E342E342E3420342034203400344C34A7
:100B78003A342D342D342D3420342034203420348C
:100B880052343A342D342D342D342034203400346A
:100B98002134213420344E344F34203453344534F6
:100BA80041345434423445344C34543420342134A0
:100BB8000034213421342034443452344F345734EF
:100BC8005334593420344434523449345634453437
:100BD8005234003443346134723420346934733409
:100BE80020344C344F3443344B344534443420346B
:100BF8002034003421342134203444344F344F34E9
:100C0800523420344F34503445344E342034213457
:100C180021340034463461347334743465346E34AA
:100C28002034623465346C34743420343134733491
:100C380074340034523443342034433461347234CD
:100C480020344F346E346C3469346E346534003477
:100C58005034693420344C3469346E346B343A344B
:100C680020344F344B34003442344F344F345434EE
:100C78003A344F344B340A3400342C34533454341B
:100C88004134543445343A3400342C3452344934E1
:100C98004734483454343A3400342C3446345234CB
:100CA8004F344E3454343A3400342C344C344534B4
:100CB800463454343A3400342C34423445344C34B9
:100CC80054343A34003443344C344F345334453478
:100CD8004434003444344F344F3452343A340034BA
:100CE8002D342D342D34203400344F3450344534D1
:100CF8004E3400344F3446344634003420344234C1
:100D08003A340034203444343A34003420344C34F7
:100D18003A340034203452343A3400340D340A342E
:100D280000344F344E34003446343A34003483129D
:100D38000313A900A701A8012908031DA42EA52EA5
:100D4800B12E08140F3083120313A200A20BAA2E8F
:100D5800AD2E831203130810072F2903031DB52E88
:100D6800B62EC22E86140F3083120313A200A20BD4
:100D7800BB2EBE2E831203138610072F02302906BE
:100D8800031DC72EC82ED42E86150F3083120313C9
:100D9800A200A20BCD2ED02E831203138611072F8B
:100DA800E730A0000330A1008F2F2908031DDD2E96
:100DB800DE2EE32E881CE12EE22EE32E102F2903CF
:100DC800031DE72EE82EED2E061DEB2EEC2EED2E44
:100DD800102F02302906031DF22EF32EF82E061EC0
:100DE800F62EF72EF82E102F0F3083120313A200C1
:100DF800A20BFC2EFF2E013083120313A707031842
:100E0800A80A0030A80701302802F4300319270285
:100E1800031C0F2F102FD92E01302802F43003198C
:100E28002702031C182F192F1A2FD42E0A128A11E1
:100E3800F6270A128A113F2F2908031D242F252F70
:100E48002A2F8818282F292F2A2F452F2903031DD9
:100E58002E2F2F2F342F0619322F332F342F452FB3
:100E680002302906031D392F3A2F3F2F061A3D2F2E
:100E78003E2F3F2F452F831203130C1C442F452F61
:100E8800202F0A128A11F8240A128A117308831271
:100E98000313A6007208A5000C1C532F542F6B2FA8
:100EA8000C10023083120313A4000430A300B930DD
:100EB800A200A20B5D2FA30B5D2FA40B5D2F642F47
:100EC800E73083120313A0000330A1008F2F0230F4
:100ED80083120313A4000430A300B930A200A20BAC
:100EE800732FA30B732FA40B732F7A2F2430F200C8
:100EF8000030F300831203132608F5002508F400D8
:100F08000A128A150B260A128A1173088312031310
:100F1800A1007208A0000800003083120313A40087
:100F28000030A3000030A2000030A100750874044E
:100F3800730472040319A12FA22FED2F0130A5000D
:100F4800B02F0130A0000310F20DF30DF40DF50DD4
:100F5800A00BA72F0130A507F51FB32FB42FA52F7E
:100F68000130A0000310A10DA20DA30DA40DA00B2C
:100F7800B62F75087902031DCB2F74087802031D5C
:100F8800CB2F73087702031DCB2F72087602031C40
:100F9800CE2FCF2FDE2F7208F6027308031C730FB3
:100FA800F7027408031C740FF8027508031C750F08
:100FB800F902211401300310F50CF40CF30CF20CB7
:100FC800FF3E031DDF2F0130A502031DEC2FED2F7F
:100FD800B42F2408F5002308F4002208F3002108A0
:100FE800F20008008312031310108F018E010C10F9
:060FF800313090000800FA
:10100000FF1B0A2883137F1883170008840A03191B
:10101000FF0A08007F087F398A000408840A031940
:04102000FF0A820041
:1017B200AA3403340134083483120313081688123E
:1017C20008178813080083120313081288160813D7
:1017D200881708008312031308128812081388134B
:1017E20008008312031308128816081788130800CA
:1017F2008312031308168812081388170800F701CA
:1018020001300A128A15D0250A128A1508000A1216
:101812008A1554240A128A15831603131114080018
:101822000A128A1554240A128A15831603131115F3
:101832000800F2000A128A1554240A128A15720844
:1018420083120313930008008316031308128812ED
:10185200081388130F3083120313880508008312BC
:101862000313A100F701F70A21080A128A15D025ED
:101872000A128A1508000A128A156E240A128A159B
:10188200831203130C0EF300730C01390800F200EB
:1018920083160313981C4E2C4F2C492C720883126A
:1018A200031399000800831603131419592C5A2C98
:1018B200542C11081F39031D5F2C602C542C080076
:1018C2000A128A156E240A128A15831203138C1EB9
:1018D2006B2C6C2C662C1A08080083120313981CBC
:1018E200732C742C762C18121816181D792C7A2C3D
:1018F2007C2C1A08F20008008B1C802C812C862C70
:101902000B1E842C852C862C8B1071088A00700E7D
:101912008300FE0E7E0E09008130831603139900A8
:10192200181518129816071387178312031398179E
:1019320018160A128A156E240A128A1583120313C4
:101942008C1EA42CA52CA72C1A08F700080007301F
:10195200831603139F0008108312031308108316C3
:10196200031388148610831203138610831603133D
:1019720006158611831203138611831603130616A6
:101982008117831203131010080083120313A4009B
:1019920024080319CD2CCE2CD62C2108403EA600BB
:1019A200003003180130A700DD2C2108A200A3019A
:1019B2002208A6002308A7002608A500F70125088B
:1019C20080380A128A15D0250A128A150800FD2CC1
:1019D2007408FF00730884000A128A1500200A1294
:1019E2008A150A128A1548240A128A150130F30749
:1019F2000318F40A0030F407740883120313FF007B
:101A0200730884000A128A1500200A128A15003A05
:101A1200031D0C2D0D2DE92C0800272DF701F70AC7
:101A22002208FF00210884000A128A1500200A12E7
:101A32008A150A128A15D0250A128A1501308312D4
:101A42000313A1070318A20A0030A207831203138B
:101A52002208FF00210884000A128A1500200A12B7
:101A62008A15003A031D362D372D0F2D0800E73059
:101A7200831203132B06033003192C06031D422D78
:101A8200432D4D2D7430A1008630A2000A128A1512
:101A92000E250A128A15612D2C08A3002B08A2001C
:101AA2000A128A15A3260A128A150E30831203130C
:101AB200A1008530A2000A128A150E250A128A1583
:101AC2000800831603138715071680309400283008
:101AD2008312031394002608AA002708AB002808E3
:101AE200AC002908AD0002300310AA0DAB0DAC0DFD
:101AF200AD0DFF3E031D752D2D08F5002C08F400D9
:101B02002B08F3002A08F2000130F9003130F80006
:101B12002D30F7000030F6000A128A1190270A12BF
:101B22008A157208FF3E8316031393000800720899
:101B3200730403199D2D9E2DCB2D0130F600AA2D85
:101B420001300310F20DF30DFF3E031DA22D0130F3
:101B5200F607F31FAD2DAE2DA12D73087502031DDF
:101B6200B42D72087402031CB72DB82DBE2D720855
:101B7200F4027308031CF503F50201300310F30CA1
:101B8200F20CFF3E031DBF2D0130F602031DCA2DCC
:101B9200CB2DAE2D7508F3007408F20008008312F5
:101BA2000313A0007708F3002008F80004300310A4
:101BB200F80CFF3E031DD82D78080F390A128A153A
:101BC2004D260A128A157708F300831203132008A0
:101BD2000F390A128A154D260A128A158312031327
:101BE20020030319F52DF62DFC2D02302006031DCE
:101BF200FB2DFC2D062E0D30F900FB30F800F80B02
:101C0200002EF90B002E052E0A2E5330F800F80B89
:101C1200082E0800F601F701720873040319122E48
:101C2200132E482E0130F8001F2E01300310F20D42
:101C3200F30DFF3E031D172E0130F807F31F222E6E
:101C4200232E162E01300310F60DF70DFF3E031D55
:101C5200242E73087502031D302E72087402031CB1
:101C6200332E342E3B2E7208F4027308031CF50344
:101C7200F502761401300310F30CF20CFF3E031D43
:101C82003C2E0130F802031D472E482E232E7708E2
:101C9200F3007608F2000800F600831203134B08E3
:101CA200F50073080319562E572E582E7514761CFC
:101CB2005B2E5C2E5D2E7516F61C602E612E622E3A
:101CC200F516761D652E662E672E7517F61D6A2E81
:101CD2006B2E6C2EF5170A128A1508240A128A1521
:101CE2004E300A128A151A240A128A157508043807
:101CF2000A128A151A240A128A150A128A1511243E
:101D02000A128A150330F400F40B852E0A128A1582
:101D120008240A128A154E300A128A151A240A1247
:101D22008A157508FB390A128A151A240A128A15AD
:101D32000A128A1511240A128A155330F400F40B80
:101D4200A02E080083120313AA0122082304031DF4
:101D5200AB2EAC2EDE2E30300A128A1530240A1237
:101D62008A15F82E2A08243E84000A30F200003038
:101D7200F3002308F5002208F4000A128A159825B8
:101D82000A128A157208303E8313800001308312D2
:101D92000313AA070A30F2000030F3002308F5000B
:101DA2002208F4000A128A150B260A128A157308F1
:101DB20083120313A3007208A20022082304031D46
:101DC200E32EE42EB32EF12E0130AA022A08243E7D
:101DD2008400831300080A128A1530240A128A1515
:101DE200831203132A08031DF72EF82EE52E08008E
:101DF200003083120313A9000030A800C330A700EB
:101E02005030A6000A128A1562250A128A1502307B
:101E120083120313B0004530AF00A930AE00AE0B01
:101E2200102FAF0B102FB00B102FF30103300A123B
:101E32008A154D260A128A15213083120313AF0028
:101E42007530AE00AE0B232FAF0B232F282FF301DB
:101E520003300A128A154D260A128A15213083127E
:101E62000313AF007530AE00AE0B352FAF0B352F1D
:101E72003A2FF30103300A128A154D260A128A15E7
:101E8200C73083120313AE00462FAE0B452F492FE6
:101E9200F30102300A128A154D260A128A15C7303A
:101EA20083120313AE00552FAE0B542F582FF70198
:101EB20028300A128A15D0250A128A15F70108302D
:101EC2000A128A15D0250A128A15F70101300A1260
:101ED2008A15D0250A128A15F70106300A128A15C8
:101EE200D0250A128A15F7010C300A128A15D0255C
:101EF2000A128A15080083120313B0009830F30007
:101F02008630F4000A128A15E8240A128A1583120E
:101F120003132B08A1002A08A0000A128A11A22486
:101F22000A128A158A30F3008630F4000A128A15E2
:101F3200E8240A128A15831203132D08A1002C0823
:101F4200A0000A128A11A2240A128A158E30F30006
:101F52008630F4000A128A15E8240A128A158312BE
:101F620003132F08A1002E08A0000A128A11A2242E
:101F72000A128A158630F3008630F4000A128A1596
:101F8200E8240A128A15831203133008031DCA2F8C
:101F9200CB2FD02F3030B1000030B200D42F3130EF
:101FA200B1000030B20031080A128A1548240A1220
:101FB2008A158230F3008630F4000A128A15E8246A
:101FC2000A128A15831203132908031DE92FEA2F27
:101FD200EF2F3030B3000030B400F32F3130B300B4
:101FE2000030B40033080A128A1548240A128A15EE
:0E1FF2000A300A128A1548240A128A150800BD
:02400E00323F3F
:00000001FF
